:030000000214FDEA
:0C14FD00787FE4F6D8FD758146021544A6
:100F160020534D50363430205072696E74657220FD
:100F26000020496E6974616C697A696E672E2E2E8F
:100F360020002D2D2D2D2D2D0A0053656C66204386
:100F46006865636B696E672E2E2E00534D503634DE
:100F56003020445249564552202573286275696CE3
:100F66006420256429206279204454393032354181
:100F76000A0056312E33300053656C66206368656F
:100F8600636B696E672E0A00204461746120547297
:100F9600616E73204F4B2E2000534D503634302057
:100FA60064617461207472616E73666572204F4B62
:100FB6002E0A00534D50363430206461746120741B
:100FC60072616E73666572204552524F52210A0055
:100FD60053656C6620636865636B20706175736525
:100FE600642E2028253032582025303258290A0010
:100FF6002044617461205472616E73204552522000
:10100600004E5443204552523A202520342E316654
:1010160000534D503634302074656D7065726174BE
:101026007572652074657374206572726F72210A19
:101036000053656C6620636865636B207061757329
:101046006564202825342E336643290A00534D5003
:101056003634302074656D70657261747572652002
:1010660074657374204F4B2E202825342E33664327
:10107600290A004E5443204F4B3A202520342E3364
:10108600660020205061706572204578697374731C
:101096002020005061706572204578697374732E44
:1010A6000A005061706572204E4F5420457869736E
:1010B60074732E005061706572204E4F542045782F
:1010C600697374732E0A005741524E3A5072696E14
:1010D6007465722048656164204F76657268656143
:1010E60074696E6721202825342E336643290A0049
:1010F6005741524E3A4E6F2050617265720A002077
:10110600526563656976696E672044617461200083
:10111600202563202563202563202530342E306664
:0A11260025632044002530326400E8
:1016E400C10EC10D021E0000021C00000212FFFF09
:0816F4000215FFFF02100000C7
:100B7C00E4F51EF51FF51412000E12171512185C71
:100B8C001218111218451218F0121903D2AFD29480
:100B9C007517057BFF7A0F7916E4FF12167C7BFF25
:100BAC007A0F79277F0412167C7BFF7A0F79381223
:100BBC0017921218BF7BFF7A0F7940E4FF12167C54
:100BCC007528FF75290F752A51752BFF752C0F751C
:100BDC002D78752E04752FE27B017A0079001207AF
:100BEC00697B017A00790012179212190C7BFF7A3B
:100BFC000F797E12179212176C8E228F23E52345E4
:100C0C002270167BFF7A0F798E7F4012167C7BFF49
:100C1C007A0F799F121792803E7BFF7A0F79B91267
:100C2C0017927528FF75290F752AD6E522F52C75B4
:100C3C002B00752D0085232E7B017A00790012077D
:100C4C00697B017A0079001217927BFF7A0F79F693
:100C5C007F4012167C80FE1218BF1218BF7E007FD8
:100C6C00117D207B017A0279121206E11215F88FA0
:100C7C001B8E1A8D198C18E4FFFE7D207CC2AB1BD9
:100C8C00AA1AA919A8181202C44016E4FFFE7D1670
:100C9C007C43AB1BAA1AA919A8181202C4606440A1
:100CAC00627528FF752910752A07851B2E851A2D4C
:100CBC0085192C85182B7B017A0279121207697B16
:100CCC00017A0279127F4012167C7D057F4F121833
:100CDC00B17BFF7A1079171217927528FF752910BE
:100CEC00752A37851B2E851A2D85192C85182B7B7B
:100CFC00017A0079001207697B017A0079001217DA
:100D0C009280FE7528FF752910752A53851B2E8538
:100D1C001A2D85192C85182B7B017A007900120766
:100D2C00697B017A0079001217927528FF752910DA
:100D3C00752A79851B2E851A2D85192C85182B7BE8
:100D4C00017A0279121207697B017A0279127F40CB
:100D5C0012167C7D057F4F1218B11218BF1218BFE6
:100D6C001218E6EF60167BFF7A1079887F40121616
:100D7C007C7BFF7A10799912179280167BFF7A1080
:100D8C0079A87F4012167C7BFF7A1079BA121792E1
:100D9C0080FE1218BF1218BF7E007F117D207B01D0
:100DAC007A0279121206E17BFF7A0F7916E4FF12B0
:100DBC00167C1214541215F88F1B8E1A8D198C1860
:100DCC00121454E4FFFE7DBE7C42AB1BAA1AA91977
:100DDC00A8181202C4602E402C7528FF75291075B6
:100DEC002ACD851B2E851A2D85192C85182B7B0158
:100DFC007A0079001207697B017A00790012179248
:100E0C00D20D020F0B1218E6EF70237528FF75290F
:100E1C0010752AF6851B2E851A2D85192C85182BF5
:100E2C007B017A007900120769D20D020F0B200E9C
:100E3C0003020F0B300A03020F0BE4F524E52475B3
:100E4C00F030A485F022F523E5242401FFE433FEE1
:100E5C007C007D30120600C3E5239FE5229E501BCB
:100E6C0074322523F58274003522F583E0FF1218C5
:100E7C00D90523E52370D1052280CDC29400000052
:100E8C00D294D2A0D2A1D2A2D2A3D2A4D293E5174B
:100E9C0075F005A4FFAEF01216B18E128F13AF13BE
:100EAC00AE121217B750F7C2A0C2A1C2A2C2A3C2FF
:100EBC00A4C293E514B40403E4F5147F1E7E00125F
:100ECC0016B18E158F16AF1405141217F6AF16AE99
:100EDC00151217B750F77F1E7E001216B18E158FA4
:100EEC0016AF1405141217F6AF16AE151217B7502D
:100EFC00F70524E524C3940A5003020E49C20E20C0
:0A0F0C000D03020DC1C20D020DC15C
:1017B700C3E51F9FFFE51E9EFED3EF9405EE6480F1
:1017C7009480500DC3EF94FBEE6480947F4002D366
:0217D70022C32B
:0117D90022ED
:1016B1008F828E83E51F2582F582E51E3583F583B2
:1016C100AF82FEE4FCFD7B5F7AEAF9F8C31206758E
:1016D100500C74A12582F58274153583F583AE8390
:0316E100AF8222B3
:10185C00438E805389F0438901758AAE758CFBC227
:06186C008DD28CD2A922EE
:10000E00E4F593F594F591759208F59575961FF5AF
:05001E00B175B2FC22E7
:10145400300A0B7BFF7A1179057F400214F91218C8
:10146400E6EF60047F0280027F018F2C7528FF75F0
:101474002911752A16300E047F0480027F038F2BF6
:10148400E4FFFE7DBE7C42AB1BAA1AA919A8181260
:1014940002C4501AE4FFFE7DA07CC0AB1BAA1AA9AB
:1014A40019A8181202C4600640047F0780027F0650
:1014B4008F2D851B31851A3085192F85182E75328D
:1014C400057B017A0279121207697B017A0279128B
:1014D4007F4012167C7528FF752911752A2B752BF0
:1014E4000085172C7B017A0279121207697B017A35
:0914F4000279127F4E12167C22CF
:03000B0002158952
:10158900C0E0C0F0C083C082C0D075D000C000C028
:1015990001C002C003C004C005C006C007758AAEF9
:1015A900758CFBC28DAE1EAF1F7C137D881206128F
:1015B900ED4C7002D20D051FE51F7002051EAE1E0F
:1015C900FFE4FCFD7B607AEAF9F8C3120675700442
:1015D900F51EF51FD007D006D005D004D003D002E0
:0F15E900D001D000D0D0D082D083D0F0D0E0326B
:1016FC000146000143FF0141000142000244000089
:08170C00C10AC10BC10CC109A7
:10181100438780759850438E04759CFA438E01432B
:0A1821008E10D2ACE4F544F5452228
:101792008B258A268927AB25AA26A9271205A860A8
:1017A200130527E5277002052614F91205A8FF1272
:0517B200000380E222AB
:080003008F993099FDC299228A
:0300230002126561
:0D126500C0E0C0F0C083C082C0D075D008CA
:10127200209803021362C298E599B43A1A200A1719
:10128200D20BD20A7546007541007542007543FFC4
:10129200C28C7F0102135F300B0AC20B8599427F19
:1012A2000202135FE5426013E543B4FF0E859943E2
:1012B2008599467541017F0302135FE543F4606B34
:1012C200300A68E54165426062E5992546F54605C2
:1012D20041E54370190545E545AE447002054414E5
:1012E2002432F58274003EF583E599F0806DE54382
:1012F20064017015AF99EF300C064245C20C805B59
:10130200754500F544D20C8052E543B40204D20E76
:101312008049E543B40304C20E8040E543B40405AA
:101322008599178036E54364056030E541B542167C
:10133200300A13E54665996002D209C20A7F051296
:101342000003AF468017E599B4AA15200A12754327
:10135200FF7F0612000312185C80057F041200034F
:0B136200D0D0D082D083D0F0D0E03299
:10184500759D0143A204E4F5BDF5BE75BC8000009D
:07185500000000000000226A
:1017DA0043BC080000000000000000E5BC30E4FB48
:0C17EA0053BCEFAFBDEFFEADBEEDFF2223
:1015F80012136DE4FBFA79F0784112022712116494
:101608007B007AE0797678451202277B0F7ACF79CA
:101618005B783B12002DA804A905AA06AB07E4FFD6
:10162800FE7D807C3F1202277B337A93798878C3CA
:0316380012002D70
:01163B00228C
:10136D00E4F528F527F526F525F529AB28AA27A9B3
:10137D0026A825C000C001C002C0031217DAAC06B2
:10138D00AD07E4120336D003D002D001D000120015
:10139D002D8F288E278D268C250529E529C39404AC
:1013AD0040C9AF28AE27AD26AC25E4FBFA7980788D
:1013BD00401202278F288E278D268C257F007EC018
:1013CD007D7F7C44AB28AA27A926A8251202C460DC
:1013DD000E400C7528007527C075267F752544AB0A
:1013ED0028AA27A926A8257F007E107D807C44127F
:1013FD000029C004C005C006C007E4FFFE7DF07CD7
:10140D0041AB28AA27A926A82512011ED003D00278
:10141D00D001D0001202278F288E278D268C25E42F
:10142D00FFFE7D7A7C44AB28AA27A926A8251202A7
:10143D00C4600B4009E4F528F527F526F525AF28FE
:06144D00AE27AD26AC2520
:011453002276
:0A18E6003091047F0080027F012290
:10163C0000150E151F111F00001F111111111F0095
:10164C0000111F111F111F00000A00111F111F0094
:10165C00150E04111F111F001818070808080700A1
:10166C001D090901151C15001C080801120C0800A5
:0F1886007580FFC2A6D2A5D2A72087FDC2A722D8
:0E1895001218868F80C2A6C2A5D2A7C2A722B3
:0E18A3001218868F80D2A6C2A5D2A7C2A72295
:10167C008B258A268927EF4480FF121895AB25AA63
:10168C0026A9271205A860130527E5277002052651
:10169C0014F91205A8FF1218A380E2AB25AA26A9FB
:0516AC0027E40205EE39
:0E18B100AE05EF4480FF121895AF060218A393
:10182B007F061218957F40121895E4FEEE90163C39
:09183B0093FF1218A30EBE40F346
:011844002281
:101715007F381218957F011218950F1218957F06BC
:101725001218957F0C12189512182B7E007F117DCB
:10173500207B017A0279121206E1E4900222F0225E
:0918FA007F011218950F021895E8
:0419150000101101AC
:09190300C2B2C2B4C2B3C2B522E3
:1017F600EF90191593FEC4540F1392B2EE1392B4E0
:0B180600A2B2B392B3A2B4B392B52219
:10176C00121872121872E4F525E4FF1218D9AD079D
:10177C00ED6006E525FEEDFF220525E525C3943039
:05178C0040E7E4FEFF50
:011791002235
:10187200E4F526F526E4FF1218D90526E526C394D9
:031882003040F201
:011885002240
:0C18BF007F167E037DE3DDFEDEFCDFFA19
:0118CB0022FA
:08190C007F217E42DEFEDFFCBC
:0119140022B0
:0C18CC007F057E347DC3DDFEDEFCDFFA0C
:0118D80022ED
:0A18F000E4F5CF75CDC075CE53228C
:0D18D9008FCFE5CD30E7FB75CDC0AFCF223E
:100026000203A4E86480F8E933E83360110460F061
:10003600ED33EC337009E8FCE9FDEAFEEBFF220440
:1000460060DED3EB9FEA9EE99DE8C2E78CF0C2F73B
:1000560095F0400CE8CCF8E9CDF9EACEFAEBCFFB07
:1000660012036F85D0F05804700320D5B3E80470EE
:10007600075002B2D50203AE92D5EC0460F7E4CC89
:10008600C0E0C398F8603B94186008400DD0E0FBD0
:10009600020386E4FBFAC9FC8028E830E406E4C9DA
:1000A600FBE4CAFCE830E305E4C9CACBFCE8540724
:1000B6006010F8C3E913F9EA13FAEB13FBEC13FC2F
:1000C600D8F130F52FC3E49CFCEF9BFFEE9AFEEDD2
:1000D60099FDD0E0FBEF4E4D4C701222DB0302037C
:1000E600ABEC2CFCEF33FFEE33FEED33FDED30E7EA
:1000F600EB020386EF2BFFEE3AFEED39FDD0E0FB77
:1001060050130BBB00030203AEED13FDEE13FEEF1F
:0801160013FFEC13FC02038649
:10011E00EC4D6011E8497017ED33EC3304600DE4DB
:10012E00FCFFFEFD22E933E8330470F80203A4124B
:10013E00036F58046009E4CC24815006285009024C
:10014E0003AE2840030203ABC0E0EB4A7044B98013
:10015E0006D0E0FB02039AEF4E701CBD8008EBFF49
:10016E00EAFEE9FD80EBE98DF0A4FEE5F002020760
:10017E00E9CDF9EAFEEBFFEF89F0A4FCE5F0CE89BC
:10018E00F0A42EFFE435F0CD89F0A42DFEE435F079
:10019E008067EF4E7005BD80D780C3EF8BF0A4ACA7
:1001AE00F0EE8BF0A42CFCE435F0F8EF8AF0A42CE2
:1001BE00E5F038FCE433CB8DF0A42CFCE5F03BF8F5
:1001CE00EE8AF0A42CFCE5F038F8E433CF89F0A4E5
:1001DE002CFCE5F038CF3400CE89F0A42FFFE5F0EB
:1001EE003EFEE433C98DF0A42EFEE5F039CD8AF043
:1001FE00A42FFFE5F03EFEE43DFD33D0E0FB5007BB
:10020E000BBB000F0203AEEC2CFCEF33FFEE33FE04
:06021E00ED33FD02038632
:100224000203AEEC5D046005E8590470030203A404
:1002340012036F580460F6EC4860F2EC7004FDFEA3
:10024400FF22C860DB2481C85009C39860025006AD
:100254000203AB9850CAF582E9294B4A7005AB8278
:1002640002039A75F0007C1A7880C3EF9BEE9AED36
:1002740099400DC3EF9BFFEE9AFEED99FDE842F025
:10028400DC23ACF0D0E0FFD0E0FED0E0FDAB822078
:10029400E7101BEB60BAEC2CFCEF33FFEE33FEED02
:1002A40033FD020386E803F830E705C0F075F0007B
:1002B400EF2FFFEE33FEED33FD40B830E7C280AAE6
:1002C40074F8CC6480CCC86480C8F582046043C3ED
:1002D400EB9FF5F0EA9E42F0E99D42F0E89C45F080
:1002E40060305018E5825FFFE582F42B5582FB50A5
:1002F400210ABA001D09B90019088016E5825BFBC2
:10030400E582F42F5582FF50090EBE00050DBD0095
:10031400010CC3EB9FF5F0EA9E42F0E99D42F0E840
:0D0324009C45F06007CC4820E701B3EC22B7
:1003310075F020800E75F010800575F0087D007E47
:10034100007F003392D530D503120667EC3340109D
:10035100EF33FFEE33FEED33FDEC33FCD5F0ED2250
:0E036100E5F0247EA2D513CC92E7CDCEFF228C
:10070D00E53C2428F8E6053C2278253007027828B8
:10071D00E475F0011206AB0205A82000EB7F2ED286
:10072D00008018EF540F2490D43440D4FF30040BC4
:10073D00EF24BFB41A0050032461FFE53D6002159C
:10074D003D0540E5407002053F30070D7825E47505
:10075D00F0011206ABEF0205EE0217457403D20746
:10076D008003E4C207F53C8B258A268927E4F53DF5
:10077D00F53FF540E53D60077F2012074880F57590
:10078D003EFFC201C200C202C203C205C206C208B8
:10079D00120716FF700D3007057F00120759AF4085
:1007AD00AE3F22B4255FC2D5C204120716FF24D076
:1007BD00B40A00501A75F00A783D30D50508B6FF19
:1007CD000106C6A426F620D5047002D20380D924D2
:1007DD00CFB41A00EF5004C2E5D204020A46D2018A
:1007ED0080C6D20080C0D20280BCD2D580BAD205DC
:1007FD0080B47F201207482002077401B53D0040E8
:10080D00F112070DFF120748020781D208D20680A8
:10081D009512070DFB12070DFA12070DF94A4B70D1
:10082D0006793D7A0B7BFF20022EE53D602A7E0086
:10083D008E827583001205C160060EEE653E70F066
:10084D00C2D5EBC0E0EAC0E0E9C0E0EE120AA6D0E6
:10085D00E0F9D0E0FAD0E0FB1205A8FF60AAEBC0EA
:10086D00E0EAC0E0E9C0E0120748D0E02401F9D089
:10087D00E03400FAD0E0FBE53E0460DCD53ED980E3
:10088D0087D20280A2120A8960F7E53E7001041238
:10089D0003B9A93E600DE53E600914F53E120B301B
:1008AD00EF60F3EA30E702F404C3995077EAF425D8
:1008BD003E0430E701E404F53E800D120A8960C163
:1008CD00EA053E253E1203B9EA783BF630E701E42E
:1008DD00253E04D53E0420050114120AA6E4C0E00D
:1008ED00120B30783BE6601320E70714F612073041
:1008FD00802204F6D0E014C0E07F00120730E53E00
:10090D006007120727153E800B300503120727D00D
:10091D00E0020781D0E00480C5120A8960A0E53E9F
:10092D00041203B9783BEAF6E53E200502600104A6
:05093D002404120AA6CB
:1009420074FF04C0E0120B30120730E53E200502AE
:100952006003120727D0E0B53EE87F4512073A78D8
:100962003BE67F2B30E7047F2DF404C0E0120748FA
:10097200D0E075F00A84C0F0120731D0E0120731DE
:10098200020781791080027908C206C2088008D263
:10099200D5790A8004790AC2D5E53E047002F53E93
:1009A200E4FAFDFEFF12070DFC7B0820011312077B
:1009B2000DFD7B1030000A12070DFE12070DFF7BA2
:1009C20020EC3382D592D55013C3E43000069FFF4A
:1009D200E49EFEE42001039DFDE49CFCE4CBF8C20E
:1009E20001EC700CCFCECDCCE824F8F870F3801770
:1009F200C3EF33FFEE33FEED33FDEC33FCEB33FBA1
:100A0200994002FB0FD8E9EB300105F8D0E0C44869
:100A1200B201C0E00AEC4D4E4F78207B0070C2EA72
:100A2200B53E0040BCC0E0120AA8D0F0D0E02001E0
:100A320004C4C0E0C4B201C0F0120731D0F0D5F056
:100A4200EB0207811206BB081E5309855807EF4CBB
:100A520007EB4209894F0991440991490804430966
:100A6200975508C8460926450892470B5D5007F37B
:100A72002D07F72E081A2B07FB230818200B462AEE
:100A820007B34800000812E53EB4FF03753E0612A4
:100A9200070DFC12070DFD12070DFE12070DFF7860
:100AA200340203E8790AA2D5200314300509B910EB
:100AB200020404B9080104A2D52006025001042050
:100AC20002689202B53D005034C0E07F2030031925
:100AD2007F30A20272067205500F120AFFC202C2D2
:100AE20006C205C2087F30800F300503E9C0E0125C
:100AF2000748300503D0E0F9D0E0B53DCC3005170A
:100B02007F30B9100C1207487F583004077F788075
:100B120003B908031207483002057F2D0207487FF8
:100B2200202008F87F2B2006F322920280CF7F003C
:100B3200B4070050052434F8E6FF22286E756C6C69
:100B42002900D20112070D3001F8C201783D30D5DB
:100B52000108F60207B32D5043495812070D24032A
:100B6200B405004001E4900B5893120739743A120D
:0A0B72000739D203753D040209851E
:101130003E9248DA3ECCCCCD3F2AAAAB400000001C
:101140003F8000003F9837F03FB504F33FD744FCA1
:101150003E3172173EB172173F0515913EDE5BD9E5
:10116000D2008002C200EDD2E7F8CD33EC33047038
:101170000BBD800592D50203AE0203A440FBD3143D
:1011800060F2F5F07C3FEE7A00C39496C8948B40F1
:10119000230AC89469C8941A401A0AC89468C89463
:1011A0001F40110AC8945AC89425400805F07A00D7
:1011B000CDC2E7CDC0F08C258D268E278F28EA235F
:1011C00023C0E02440F582E43411F58312069B121B
:1011D000002DECC0E0EDC0E0EEC0E0EFC0E0120694
:1011E0008BA825A926AA27AB28120029D0E0FBD07E
:1011F000E0FAD0E0F9D0E0B2E7F81202278C258DB2
:10120000268E278F2890113074031204EBA825A98D
:1012100026AA27AB2812011ED0E0600F244CF582CD
:10122000E43411F58312069B12002D8C258D268E39
:10123000278F28D0E0C3947FFDE49400FC1203368E
:101240007B187A727931783F12011EA825A926AA47
:1012500027AB2812002D30000B7BD97A5B79DE7822
:051260003E12011E22F8
:10036F00E9D2E7C933E833F892D5EDD2E7CD33ECD4
:07037F0033FC5002B2D5224D
:10038600EC30E7100FBF000C0EBE00080DBD0004D8
:100396000BEB6014A2D5EB13FCED92E7FD2274FF84
:1003A600FCFDFEFF22E480F8A2D574FF13FC7D80DD
:0303B600E480EFF1
:1003B900F920E72824F950037907E4F42402FB180B
:1003C900DBFDE624FB5014E9600DE4F618E604F6BB
:0F03D900B40A08E4F6D9F57401F60A22C2D52257
:1003E800ED33EC3392D5FA602AB4FF33EDC2E77BE4
:1003F800FF60067A04790DE4227A04791620D50480
:100408007A047911224E614E002B494E46002D493F
:100418004E4600E47A08F608DAFC7B00740722E806
:10042800C0E0ECC0E0EDC0E0EEC0E0EFC0E0EA758F
:10043800F010A4CAABF075F04DA42BFBE435F0FC2A
:10044800EA2410FAEB34C5FBEC34D9FCEDC2E7FF23
:1004580075F056A4F42411C5F0F434C58FF0A42A1D
:10046800E5F03BE43CF620E714120568D0E0FFD045
:10047800E0FED0E0FDD0E0FC1202278014F4041264
:100488000568D0E0FFD0E0FED0E0FDD0E0FC12012E
:100498001ED0E0F8E6FAEDD2E7CD33EC332482FB48
:1004A800E4C3CF33CFCE33CECD33CD33DBF37B07AD
:1004B80075F00A846004F6081B0AE5F0F6088FF068
:1004C800740AA4FFACF08EF0740AA42CFEACF050B1
:1004D800010C8DF0740AA42CFDE435F0F608DBDE7F
:0304E80074072274
:1004EB00C0E0EFFBEEFAEDF9ECF812011ED0E0F5EF
:1004FB00F0EFFBEEFAEDF9ECF812068BA3A3A3A336
:10050B00E8C0E0E9C0E0EAC0E0EBC0E0C0F01201F7
:10051B001E12069BA3A3A3A312002DD0F0D0E0FBC9
:0D052B00D0E0FAD0E0F9D0E0F8D5F0D4220D
:100538003F8000004120000042C80000447A0000CB
:10054800461C400047C35000497424004B1896804D
:100558004CBEBC205A0E1BCA6753C21C749DC5AE44
:10056800FB60065407601C2323120596EB54386081
:100578000912058212059112011EECF8EDF9EEFA46
:10058800EFCB22EB12059180F1543803241C90051F
:1005980038FE93FC0EEE93FD0EEE930ECE93FF22E3
:10150900020B7CE493A3F8E493A34003F68001F271
:1015190008DFF48029E493A3F85407240CC8C333E3
:10152900C4540F4420C8834004F456800146F6DFB2
:10153900E4800B01020408102040809016E4E47E48
:10154900019360BCA3FF543F30E509541FFEE493A7
:10155900A360010ECF54C025E060A840B8E493A36E
:10156900FAE493A3F8E493A3C8C582C8CAC583CA99
:10157900F0A3C8C582C8CAC583CADFE9DEE780BE51
:0117140000D4
:1005A800BB010689828A83E0225002E722BBFE0251
:0905B800E32289828A83E4932284
:1005C100BB010CE58229F582E5833AF583E02250EF
:1005D10006E92582F8E622BBFE06E92582F8E22239
:0D05E100E58229F582E5833AF583E4932253
:1005EE00BB010689828A83F0225002F722BBFE01EC
:0205FE00F322E6
:10060000EF8DF0A4A8F0CF8CF0A428CE8DF0A42E0E
:02061000FE22C8
:10061200BC000BBE0029EF8DF084FFADF022E4CCCC
:10062200F875F008EF2FFFEE33FEEC33FCEE9DEC95
:10063200984005FCEE9DFE0FD5F0E9E4CEFD22EDDB
:10064200F8F5F0EE8420D21CFEADF075F008EF2F25
:10065200FFED33FD4007985006D5F0F222C398FD16
:050662000FD5F0EA22B3
:0E066700C3E49FFFE49EFEE49DFDE49CFC22A4
:10067500EB9FF5F0EA9E42F0E99D42F0EC6480C8FC
:0606850064809845F0229C
:10068B00E493FC740193FD740293FE740393FF22B5
:10069B00E493F8740193F9740293FA740393FB22B5
:1006AB00FAE6FB0808E6F925F0F618E6CA3AF62250
:1006BB00D083D082F8E4937012740193700DA3A3CE
:1006CB0093F8740193F5828883E4737402936860E2
:0606DB00EFA3A3A380DFE2
:10174500EFB40A07740D121750740A309811A8994E
:10175500B8130CC2983098FDA899C298B811F63004
:0717650099FDC299F59922DC
:1006E100EF4E6012EF60010EEDBB010B89828A8330
:1006F100F0A3DFFCDEFA2289F05007F709DFFCA93D
:0C070100F022BBFEFCF309DFFCA9F02293
:00000001FF
